:100000000C9462000C948A000C948A000C948A0070
:100010000C948A000C948A000C948A000C948A0038
:100020000C948A000C948A000C948A000C94390376
:100030000C948A000C948A000C948A000C948A0018
:100040000C94EF020C948A000C94BD020C9497025D
:100050000C948A000C948A000C948A000C948A00F8
:100060000C948A000C948A000000000024002700F1
:100070002A0000000000250028002B0000000000DE
:1000800023002600290004040404040404040202DA
:100090000202020203030303030301020408102007
:1000A0004080010204081020010204081020000012
:1000B0000008000201000003040700000000000027
:1000C00000003A0411241FBECFEFD8E0DEBFCDBF41
:1000D00011E0A0E0B1E0E4E2FEE002C005900D9284
:1000E000AC32B107D9F721E0ACE2B1E001C01D921A
:1000F000AF3FB207E1F710E0C2E6D0E004C02197BD
:10010000FE010E940A07C136D107C9F70E94970471
:100110000C9410070C940000E091FC01EC3088F581
:100120004091FD0128E830E0241B310947FD33955B
:10013000220F331F220F331F8217930784F0409141
:10014000FE0128E532E0241B310947FD3395220FDB
:10015000331F220F331F821793070CF49C01225088
:100160003109220F331F4FB7F8948E2F90E0FC0116
:10017000EE0FFF1FE80FF91FE952FE4F3283218374
:100180004FBF0895AF92BF92CF92DF92EF92FF924E
:100190000F931F93CF93DF936C017B018B01040FAF
:1001A000151FEB015E01AE18BF08C017D10759F04B
:1001B0006991D601ED91FC910190F081E02DC6018D
:1001C0000995892B79F7C501DF91CF911F910F9187
:1001D000FF90EF90DF90CF90BF90AF900895FC011B
:1001E000538D448D252F30E0842F90E0821B930B9C
:1001F000541710F0CF96089501970895FC01918D42
:10020000828D981761F0A28DAE0FBF2FB11D5D9644
:100210008C91928D9F5F9F73928F90E008958FEFE6
:100220009FEF0895FC01918D828D981731F0828D9A
:10023000E80FF11D858D90E008958FEF9FEF0895F1
:10024000FC01918D228D892F90E0805C9F4F821B55
:1002500091098F73992708958AE391E00E94200104
:1002600021E0892B09F420E0822F089580E090E0BE
:10027000892B29F00E942C0181110C940000089513
:10028000FC01A48DA80FB92FB11DA35ABF4F2C910B
:10029000848D90E001968F739927848FA689B78902
:1002A0002C93A089B1898C91837080648C93938DF9
:1002B000848D981306C00288F389E02D80818F7D9C
:1002C00080830895EF92FF920F931F93CF93DF9354
:1002D000EC0181E0888F9B8D8C8D98131AC0E88982
:1002E000F989808185FF15C09FB7F894EE89FF8951
:1002F0006083E889F98980818370806480839FBFEF
:1003000081E090E0DF91CF911F910F91FF90EF90EE
:100310000895F62E0B8D10E00F5F1F4F0F731127FE
:10032000E02E8C8D8E110CC00FB607FCFACFE88939
:10033000F989808185FFF5CFCE010E944001F1CF80
:10034000EB8DEC0FFD2FF11DE35AFF4FF0829FB7AD
:10035000F8940B8FEA89FB8980818062CFCFCF939D
:10036000DF93EC01888D8823B9F0AA89BB89E889DD
:10037000F9898C9185FD03C0808186FD0DC00FB683
:1003800007FCF7CF8C9185FFF2CF808185FFEDCF01
:10039000CE010E944001E9CFDF91CF9108958330D3
:1003A00081F028F4813099F08230A9F008958730E7
:1003B000A9F08830C9F08430B1F4809180008F7D3D
:1003C00003C0809180008F7780938000089584B56A
:1003D0008F7784BD089584B58F7DFBCF8091B00069
:1003E0008F778093B00008958091B0008F7DF9CF12
:1003F0001F93CF93DF93282F30E0F901E255FF4F91
:100400008491F901E656FF4FD491F901EA57FF4F65
:10041000C491CC23A9F0162F81110E94CF01EC2F9B
:10042000F0E0EE0FFF1FEE58FF4FA591B4918FB78C
:10043000F894EC91111108C0D095DE23DC938FBFA6
:10044000DF91CF911F910895DE2BF8CFCF93DF93EB
:1004500090E0FC01E656FF4F24918A579F4FFC0124
:1004600084918823D1F090E0880F991FFC01E8590E
:10047000FF4FA591B491FC01EE58FF4FC591D49167
:1004800061110EC09FB7F8948C91E22FE0958E23F6
:100490008C932881E223E8839FBFDF91CF91089559
:1004A0008FB7F894EC91E22BEC938FBFF6CF3FB768
:1004B000F8948091320190913301A0913401B09170
:1004C000350126B5A89B05C02F3F19F00196A11D47
:1004D000B11D3FBFBA2FA92F982F8827BC01CD018E
:1004E000620F711D811D911D42E0660F771F881FED
:1004F000991F4A95D1F70895FC0101900020E9F772
:100500003197AF01481B590BBC018AE391E00C9471
:10051000C200CF93DF930E947C02EC0182E191E064
:100520000E947C028C0F9D1FDF91CF9108951F9236
:100530000F920FB60F9211242F933F934F935F9317
:100540006F937F938F939F93AF93BF93EF93FF939B
:100550008AE391E00E944001FF91EF91BF91AF913A
:100560009F918F917F916F915F914F913F912F91CB
:100570000F900FBE0F901F9018951F920F920FB6FD
:100580000F9211242F938F939F93EF93FF93E091FA
:100590004A01F0914B018081E0915001F0915101AD
:1005A00082FD1BC09081809153018F5F8F732091DA
:1005B0005401821741F0E0915301F0E0E65CFE4FF8
:1005C000958F80935301FF91EF919F918F912F9180
:1005D0000F900FBE0F901F9018958081F4CF1F923F
:1005E0000F920FB60F9211242F933F938F939F93E7
:1005F000AF93BF9380912E0190912F01A091300174
:10060000B091310130912D0123E0230F2D3758F5A2
:100610000196A11DB11D20932D0180932E01909371
:100620002F01A0933001B09331018091320190915C
:100630003301A0913401B09135010196A11DB11D86
:100640008093320190933301A0933401B09335012C
:10065000BF91AF919F918F913F912F910F900FBEBE
:100660000F901F90189526E8230F0296A11DB11D2B
:10067000D2CF1F920F920FB60F9211242F933F9358
:100680004F935F936F937F938F939F93AF93BF939A
:10069000CF93DF93EF93FF9380912C01C091FB01E7
:1006A000D0E087FF24C010928500109284008091D2
:1006B0002C018F5F80932C0180912C01082E000C5F
:1006C000990B8C179D0724F480912C018C30C4F178
:1006D0008091840090918500049680349C4908F4B0
:1006E0007AC08091840090918500049676C08091B4
:1006F0002C01082E000C990B8C179D07C4F6E09175
:100700002C018E2FEE0F990BFC01EE0FFF1FE80F4F
:10071000F91FE952FE4F808186FFC9CFE0912C017D
:100720008E2FEE0F990BFC01EE0FFF1FE80FF91F44
:10073000E952FE4F808160E08F730E94F801B7CFCD
:100740002091840030918500E0912C018E2FEE0FD6
:10075000990BFC01EE0FFF1FE80FF91FE952FE4F46
:1007600081819281820F931F9093890080938800EA
:10077000E0912C018E2FEE0F990BFC01EE0FFF1F65
:10078000E80FF91FE952FE4F808186FF11C0E0910A
:100790002C018E2FEE0F990BFC01EE0FFF1FE80FBF
:1007A000F91FE952FE4F808161E08F730E94F801CA
:1007B000FF91EF91DF91CF91BF91AF919F918F9179
:1007C0007F916F915F914F913F912F910F900FBE4D
:1007D0000F901F90189580E49CE990938900809376
:1007E00088008FEF80932C01E3CFCF92DF92EF92BE
:1007F000FF920F931F93E82FF92F05C001501109A5
:100800002109310961F1908196239417B9F305C04C
:10081000015011092109310911F190819623941396
:10082000F7CFC12CD12CE12CF12C0AC08FEFC81AC4
:10083000D80AE80AF80A0C151D052E053F0579F0BF
:1008400080818623841791F36C2D7D2D8E2D9F2D15
:100850001F910F91FF90EF90DF90CF90089560E08F
:1008600070E080E090E01F910F91FF90EF90DF909B
:10087000CF90089510923D0110923C0188EE93E0D4
:10088000A0E0B0E080933E0190933F01A09340012F
:10089000B093410184E091E090933B0180933A0151
:1008A00085EC90E0909347018093460184EC90E0C2
:1008B000909349018093480180EC90E090934B0124
:1008C00080934A0181EC90E090934D0180934C011C
:1008D00082EC90E090934F0180934E0186EC90E083
:1008E0009093510180935001109253011092540142
:1008F00010925501109256018091FB018C3098F4B2
:1009000091E0980F9093FB018093FC0190E0FC0133
:10091000EE0FFF1FE80FF91FE952FE4F88EB9BE037
:100920009283818308958FEF8093FC010895CF9384
:10093000DF93CDB7DEB7A1970FB6F894DEBF0FBE39
:10094000CDBF789484B5826084BD84B5816084BD58
:1009500085B5826085BD85B5816085BD80916E005D
:10096000816080936E00109281008091810082608E
:1009700080938100809181008160809381008091CB
:1009800080008160809380008091B10084608093BA
:10099000B1008091B00081608093B00080917A00B6
:1009A000846080937A0080917A00826080937A00DC
:1009B00080917A00816080937A0080917A008068CB
:1009C00080937A001092C100E0914A01F0914B01AE
:1009D00082E08083E0914601F09147011082E0912E
:1009E0004801F09149018FEC808310925201E0910F
:1009F0004E01F0914F0186E08083E0914C01F0912F
:100A00004D01808180618083E0914C01F0914D0126
:100A1000808188608083E0914C01F0914D0180815C
:100A200080688083E0914C01F0914D0180818F7D41
:100A3000808361E08BE00E94260260E08CE00E94EF
:100A4000260260E088E00E94260261E084E00E94C5
:100A5000260261E085E00E9426028091FC018C3034
:100A600008F051C061E087E00E9426028091FC01FD
:100A7000282F30E0F901EE0FFF1FE20FF31FE952BC
:100A8000FE4F9081907C976090831092FD011092B0
:100A9000FE012CE0622F0E94FE06829FB00111240D
:100AA00030E020E0AB01420F531FFA01EE0FFF1FB1
:100AB000E40FF51FE952FE4F908196FD16C02F5F9F
:100AC0003F4F2C30310571F781110FC0109280001B
:100AD00082E0809381001092850010928400B19A88
:100AE00080916F00826080936F00E091FC018E2FF7
:100AF00090E0FC01EE0FFF1FE80FF91FE952FE4FD7
:100B0000808180648083FAE04F2E512C612C712CFF
:100B1000A8E82A2E312C0E9457024B015C01E4EF19
:100B2000CE2EDD24D394E12CF12C0E9457026819BB
:100B300079098A099B09683E734081059105A8F3EC
:100B400021E0C21AD108E108F10838EE830E33E043
:100B5000931EA11CB11CC114D104E104F10429F7B6
:100B600060E08BE00E94F80183E090E00197F1F7EC
:100B700061E08BE00E94F80183E290E00197F1F7D9
:100B800060E08BE00E94F801E6EAF0E06491E2E9BF
:100B9000F0E08491E82FF0E0EE0FFF1FE458FF4FE4
:100BA0008591949100E412E42FE030E0462F0E94FA
:100BB000F503611571058105910529F06F5F7F4F80
:100BC0008F4F9F4F9F70A30192010E94A306209315
:100BD000360130933701409338015093390119A2FF
:100BE0007E01F1E2EF0EF11CCA01B901A3019201ED
:100BF0000E94CD06605DF70162937F0121153105EA
:100C00004105510589F7309719F0CF010E947C0208
:100C100082E191E00E947C0280913601909137013F
:100C2000A0913801B091390188379105A105B1052E
:100C30000CF06DC061E085E00E94F80160E084E0A6
:100C40000E94F80185E191E00E948902E6EBF0E064
:100C50008491E2EAF0E0F490EEE8F0E0E490EE2037
:100C600009F460C081110E94CF01EE2DF0E0EE0F7B
:100C7000FF1FE458FF4FA591B4918C91F82209F41D
:100C800051C08091FD016101C81AD10887FDD3943C
:100C9000CC0CDD1CCC0CDD1C0D2C000CEE08FF0870
:100CA0008091FE0128E532E0281B310987FD33954C
:100CB000220F331F220F331F032E000C440B550B42
:100CC0002C193D094E095F09A8E7B0E00E94C20651
:100CD00024EB30E040E050E00E94A306DA01C901B5
:100CE0008C0D9D1DAE1DBF1D0E948C0080E291E009
:100CF0000E94890280E090E0892B09F40CCF0E94C9
:100D00002C01882309F407CF0E94000004CF60E083
:100D100085E00E94F80161E084E00E94F8018AE128
:100D200091E092CF8091FD019101281B310987FD4F
:100D30003395C901880F991F880F991F0E948C0055
:100D400085E291E0D5CF052E97FB1EF400940E941A
:100D5000BA0657FD07D00E94CD0607FC03D04EF41B
:100D60000C94BA0650954095309521953F4F4F4FC2
:100D70005F4F089590958095709561957F4F8F4F47
:100D80009F4F08950E94EF06A59F900DB49F900D70
:100D9000A49F800D911D11240895A1E21A2EAA1B73
:100DA000BB1BFD010DC0AA1FBB1FEE1FFF1FA2171B
:100DB000B307E407F50720F0A21BB30BE40BF50B18
:100DC000661F771F881F991F1A9469F760957095A1
:100DD000809590959B01AC01BD01CF010895A29F24
:100DE000B001B39FC001A39F700D811D1124911DFF
:100DF000B29F700D811D1124911D0895991B79E0FA
:100E000004C0991F961708F0961B881F7A95C9F79A
:100E100080950895EE0FFF1F0590F491E02D099441
:040E2000F894FFCF74
:100E2400000000006201C200EF00AF012001FE00DB
:100E340012010D0A0046756C6C00456D70747900E2
:0C0E44004F70656E00436C6F736500001A
:00000001FF
